{
  "contractName": "ClockAuction",
  "abi": [
    {
      "constant": false,
      "inputs": [
        {
          "name": "_tokenId",
          "type": "uint256"
        },
        {
          "name": "_startingPrice",
          "type": "uint256"
        },
        {
          "name": "_endingPrice",
          "type": "uint256"
        },
        {
          "name": "_duration",
          "type": "uint256"
        },
        {
          "name": "_seller",
          "type": "address"
        }
      ],
      "name": "createAuction",
      "outputs": [],
      "payable": false,
      "stateMutability": "nonpayable",
      "type": "function"
    },
    {
      "constant": false,
      "inputs": [],
      "name": "unpause",
      "outputs": [
        {
          "name": "",
          "type": "bool"
        }
      ],
      "payable": false,
      "stateMutability": "nonpayable",
      "type": "function"
    },
    {
      "constant": false,
      "inputs": [
        {
          "name": "_tokenId",
          "type": "uint256"
        }
      ],
      "name": "bid",
      "outputs": [],
      "payable": true,
      "stateMutability": "payable",
      "type": "function"
    },
    {
      "constant": true,
      "inputs": [],
      "name": "paused",
      "outputs": [
        {
          "name": "",
          "type": "bool"
        }
      ],
      "payable": false,
      "stateMutability": "view",
      "type": "function"
    },
    {
      "constant": false,
      "inputs": [],
      "name": "withdrawBalance",
      "outputs": [],
      "payable": false,
      "stateMutability": "nonpayable",
      "type": "function"
    },
    {
      "constant": true,
      "inputs": [
        {
          "name": "_tokenId",
          "type": "uint256"
        }
      ],
      "name": "getAuction",
      "outputs": [
        {
          "name": "seller",
          "type": "address"
        },
        {
          "name": "startingPrice",
          "type": "uint256"
        },
        {
          "name": "endingPrice",
          "type": "uint256"
        },
        {
          "name": "duration",
          "type": "uint256"
        },
        {
          "name": "startedAt",
          "type": "uint256"
        }
      ],
      "payable": false,
      "stateMutability": "view",
      "type": "function"
    },
    {
      "constant": true,
      "inputs": [],
      "name": "ownerCut",
      "outputs": [
        {
          "name": "",
          "type": "uint256"
        }
      ],
      "payable": false,
      "stateMutability": "view",
      "type": "function"
    },
    {
      "constant": false,
      "inputs": [],
      "name": "pause",
      "outputs": [
        {
          "name": "",
          "type": "bool"
        }
      ],
      "payable": false,
      "stateMutability": "nonpayable",
      "type": "function"
    },
    {
      "constant": false,
      "inputs": [
        {
          "name": "_tokenId",
          "type": "uint256"
        }
      ],
      "name": "cancelAuctionWhenPaused",
      "outputs": [],
      "payable": false,
      "stateMutability": "nonpayable",
      "type": "function"
    },
    {
      "constant": true,
      "inputs": [],
      "name": "owner",
      "outputs": [
        {
          "name": "",
          "type": "address"
        }
      ],
      "payable": false,
      "stateMutability": "view",
      "type": "function"
    },
    {
      "constant": false,
      "inputs": [
        {
          "name": "_tokenId",
          "type": "uint256"
        }
      ],
      "name": "cancelAuction",
      "outputs": [],
      "payable": false,
      "stateMutability": "nonpayable",
      "type": "function"
    },
    {
      "constant": true,
      "inputs": [
        {
          "name": "_tokenId",
          "type": "uint256"
        }
      ],
      "name": "getCurrentPrice",
      "outputs": [
        {
          "name": "",
          "type": "uint256"
        }
      ],
      "payable": false,
      "stateMutability": "view",
      "type": "function"
    },
    {
      "constant": true,
      "inputs": [],
      "name": "nonFungibleContract",
      "outputs": [
        {
          "name": "",
          "type": "address"
        }
      ],
      "payable": false,
      "stateMutability": "view",
      "type": "function"
    },
    {
      "constant": false,
      "inputs": [
        {
          "name": "newOwner",
          "type": "address"
        }
      ],
      "name": "transferOwnership",
      "outputs": [],
      "payable": false,
      "stateMutability": "nonpayable",
      "type": "function"
    },
    {
      "inputs": [
        {
          "name": "_nftAddress",
          "type": "address"
        },
        {
          "name": "_cut",
          "type": "uint256"
        }
      ],
      "payable": false,
      "stateMutability": "nonpayable",
      "type": "constructor"
    },
    {
      "payable": false,
      "stateMutability": "nonpayable",
      "type": "fallback"
    },
    {
      "anonymous": false,
      "inputs": [
        {
          "indexed": false,
          "name": "tokenId",
          "type": "uint256"
        },
        {
          "indexed": false,
          "name": "startingPrice",
          "type": "uint256"
        },
        {
          "indexed": false,
          "name": "endingPrice",
          "type": "uint256"
        },
        {
          "indexed": false,
          "name": "duration",
          "type": "uint256"
        }
      ],
      "name": "AuctionCreated",
      "type": "event"
    },
    {
      "anonymous": false,
      "inputs": [
        {
          "indexed": false,
          "name": "tokenId",
          "type": "uint256"
        },
        {
          "indexed": false,
          "name": "totalPrice",
          "type": "uint256"
        },
        {
          "indexed": false,
          "name": "winner",
          "type": "address"
        }
      ],
      "name": "AuctionSuccessful",
      "type": "event"
    },
    {
      "anonymous": false,
      "inputs": [
        {
          "indexed": false,
          "name": "tokenId",
          "type": "uint256"
        }
      ],
      "name": "AuctionCancelled",
      "type": "event"
    },
    {
      "anonymous": false,
      "inputs": [],
      "name": "Pause",
      "type": "event"
    },
    {
      "anonymous": false,
      "inputs": [],
      "name": "Unpause",
      "type": "event"
    }
  ],
  "bytecode": "0x606060405260008060146101000a81548160ff021916908315150217905550341561002957600080fd5b6040516040806116c9833981016040528080519060200190919080519060200190919050506000336000806101000a81548173ffffffffffffffffffffffffffffffffffffffff021916908373ffffffffffffffffffffffffffffffffffffffff16021790555061271082111515156100a157600080fd5b816002819055508290508073ffffffffffffffffffffffffffffffffffffffff16631051db346000604051602001526040518163ffffffff167c0100000000000000000000000000000000000000000000000000000000028152600401602060405180830381600087803b151561011757600080fd5b6102c65a03f1151561012857600080fd5b50505060405180519050151561013d57600080fd5b80600160006101000a81548173ffffffffffffffffffffffffffffffffffffffff021916908373ffffffffffffffffffffffffffffffffffffffff160217905550505050611539806101906000396000f3006060604052600436106100d0576000357c0100000000000000000000000000000000000000000000000000000000900463ffffffff16806327ebe40a146100dd5780633f4ba83a1461013a578063454a2ab3146101675780635c975abb1461017f5780635fd8c710146101ac57806378bd7935146101c157806383b5ff8b146102405780638456cb5914610269578063878eb368146102965780638da5cb5b146102b957806396b5a7551461030e578063c55d0f5614610331578063dd1b7a0f14610368578063f2fde38b146103bd575b34156100db57600080fd5b005b34156100e857600080fd5b610138600480803590602001909190803590602001909190803590602001909190803590602001909190803573ffffffffffffffffffffffffffffffffffffffff169060200190919050506103f6565b005b341561014557600080fd5b61014d61051c565b604051808215151515815260200191505060405180910390f35b61017d60048080359060200190919050506105e1565b005b341561018a57600080fd5b610192610615565b604051808215151515815260200191505060405180910390f35b34156101b757600080fd5b6101bf610628565b005b34156101cc57600080fd5b6101e2600480803590602001909190505061073a565b604051808673ffffffffffffffffffffffffffffffffffffffff1673ffffffffffffffffffffffffffffffffffffffff1681526020018581526020018481526020018381526020018281526020019550505050505060405180910390f35b341561024b57600080fd5b61025361085d565b6040518082815260200191505060405180910390f35b341561027457600080fd5b61027c610863565b604051808215151515815260200191505060405180910390f35b34156102a157600080fd5b6102b7600480803590602001909190505061092a565b005b34156102c457600080fd5b6102cc6109fc565b604051808273ffffffffffffffffffffffffffffffffffffffff1673ffffffffffffffffffffffffffffffffffffffff16815260200191505060405180910390f35b341561031957600080fd5b61032f6004808035906020019091905050610a21565b005b341561033c57600080fd5b6103526004808035906020019091905050610abd565b6040518082815260200191505060405180910390f35b341561037357600080fd5b61037b610afa565b604051808273ffffffffffffffffffffffffffffffffffffffff1673ffffffffffffffffffffffffffffffffffffffff16815260200191505060405180910390f35b34156103c857600080fd5b6103f4600480803573ffffffffffffffffffffffffffffffffffffffff16906020019091905050610b20565b005b6103fe61148f565b600060149054906101000a900460ff1615151561041a57600080fd5b846fffffffffffffffffffffffffffffffff8110151561043957600080fd5b846fffffffffffffffffffffffffffffffff8110151561045857600080fd5b8467ffffffffffffffff811115151561047057600080fd5b61047a338a610bf5565b151561048557600080fd5b61048f338a610ce1565b60a0604051908101604052808673ffffffffffffffffffffffffffffffffffffffff168152602001896fffffffffffffffffffffffffffffffff168152602001886fffffffffffffffffffffffffffffffff1681526020018767ffffffffffffffff1681526020014267ffffffffffffffff1681525093506105118985610df1565b505050505050505050565b60008060009054906101000a900473ffffffffffffffffffffffffffffffffffffffff1673ffffffffffffffffffffffffffffffffffffffff163373ffffffffffffffffffffffffffffffffffffffff1614151561057957600080fd5b600060149054906101000a900460ff16151561059457600080fd5b60008060146101000a81548160ff0219169083151502179055507f7805862f689e2f13df9f062ff482ad3ad112aca9e0847911ed832e158c525b3360405160405180910390a16001905090565b600060149054906101000a900460ff161515156105fd57600080fd5b6106078134610fd6565b50610612338261112d565b50565b600060149054906101000a900460ff1681565b6000600160009054906101000a900473ffffffffffffffffffffffffffffffffffffffff1690506000809054906101000a900473ffffffffffffffffffffffffffffffffffffffff1673ffffffffffffffffffffffffffffffffffffffff163373ffffffffffffffffffffffffffffffffffffffff1614806106d557508073ffffffffffffffffffffffffffffffffffffffff163373ffffffffffffffffffffffffffffffffffffffff16145b15156106e057600080fd5b8073ffffffffffffffffffffffffffffffffffffffff166108fc3073ffffffffffffffffffffffffffffffffffffffff16319081150290604051600060405180830381858888f19350505050151561073757600080fd5b50565b60008060008060008060036000888152602001908152602001600020905061076181611209565b151561076c57600080fd5b8060000160009054906101000a900473ffffffffffffffffffffffffffffffffffffffff168160010160009054906101000a90046fffffffffffffffffffffffffffffffff168260010160109054906101000a90046fffffffffffffffffffffffffffffffff168360020160009054906101000a900467ffffffffffffffff168460020160089054906101000a900467ffffffffffffffff16836fffffffffffffffffffffffffffffffff169350826fffffffffffffffffffffffffffffffff1692508167ffffffffffffffff1691508067ffffffffffffffff169050955095509550955095505091939590929450565b60025481565b60008060009054906101000a900473ffffffffffffffffffffffffffffffffffffffff1673ffffffffffffffffffffffffffffffffffffffff163373ffffffffffffffffffffffffffffffffffffffff161415156108c057600080fd5b600060149054906101000a900460ff161515156108dc57600080fd5b6001600060146101000a81548160ff0219169083151502179055507f6985a02210a168e66602d3235cb6db0e70f92b3ba4d376a33c0f3d9434bff62560405160405180910390a16001905090565b60008060149054906101000a900460ff16151561094657600080fd5b6000809054906101000a900473ffffffffffffffffffffffffffffffffffffffff1673ffffffffffffffffffffffffffffffffffffffff163373ffffffffffffffffffffffffffffffffffffffff161415156109a157600080fd5b6003600083815260200190815260200160002090506109bf81611209565b15156109ca57600080fd5b6109f8828260000160009054906101000a900473ffffffffffffffffffffffffffffffffffffffff16611237565b5050565b6000809054906101000a900473ffffffffffffffffffffffffffffffffffffffff1681565b600080600360008481526020019081526020016000209150610a4282611209565b1515610a4d57600080fd5b8160000160009054906101000a900473ffffffffffffffffffffffffffffffffffffffff1690508073ffffffffffffffffffffffffffffffffffffffff163373ffffffffffffffffffffffffffffffffffffffff16141515610aae57600080fd5b610ab88382611237565b505050565b600080600360008481526020019081526020016000209050610ade81611209565b1515610ae957600080fd5b610af281611285565b915050919050565b600160009054906101000a900473ffffffffffffffffffffffffffffffffffffffff1681565b6000809054906101000a900473ffffffffffffffffffffffffffffffffffffffff1673ffffffffffffffffffffffffffffffffffffffff163373ffffffffffffffffffffffffffffffffffffffff16141515610b7b57600080fd5b600073ffffffffffffffffffffffffffffffffffffffff168173ffffffffffffffffffffffffffffffffffffffff16141515610bf257806000806101000a81548173ffffffffffffffffffffffffffffffffffffffff021916908373ffffffffffffffffffffffffffffffffffffffff1602179055505b50565b60008273ffffffffffffffffffffffffffffffffffffffff16600160009054906101000a900473ffffffffffffffffffffffffffffffffffffffff1673ffffffffffffffffffffffffffffffffffffffff16636352211e846000604051602001526040518263ffffffff167c010000000000000000000000000000000000000000000000000000000002815260040180828152602001915050602060405180830381600087803b1515610ca757600080fd5b6102c65a03f11515610cb857600080fd5b5050506040518051905073ffffffffffffffffffffffffffffffffffffffff1614905092915050565b600160009054906101000a900473ffffffffffffffffffffffffffffffffffffffff1673ffffffffffffffffffffffffffffffffffffffff166323b872dd8330846040518463ffffffff167c0100000000000000000000000000000000000000000000000000000000028152600401808473ffffffffffffffffffffffffffffffffffffffff1673ffffffffffffffffffffffffffffffffffffffff1681526020018373ffffffffffffffffffffffffffffffffffffffff1673ffffffffffffffffffffffffffffffffffffffff1681526020018281526020019350505050600060405180830381600087803b1515610dd957600080fd5b6102c65a03f11515610dea57600080fd5b5050505050565b603c816060015167ffffffffffffffff1610151515610e0f57600080fd5b806003600084815260200190815260200160002060008201518160000160006101000a81548173ffffffffffffffffffffffffffffffffffffffff021916908373ffffffffffffffffffffffffffffffffffffffff16021790555060208201518160010160006101000a8154816fffffffffffffffffffffffffffffffff02191690836fffffffffffffffffffffffffffffffff16021790555060408201518160010160106101000a8154816fffffffffffffffffffffffffffffffff02191690836fffffffffffffffffffffffffffffffff16021790555060608201518160020160006101000a81548167ffffffffffffffff021916908367ffffffffffffffff16021790555060808201518160020160086101000a81548167ffffffffffffffff021916908367ffffffffffffffff1602179055509050507fa9c8dfcda5664a5a124c713e386da27de87432d5b668e79458501eb296389ba78282602001516fffffffffffffffffffffffffffffffff1683604001516fffffffffffffffffffffffffffffffff16846060015167ffffffffffffffff166040518085815260200184815260200183815260200182815260200194505050505060405180910390a15050565b600080600080600080600360008981526020019081526020016000209450610ffd85611209565b151561100857600080fd5b61101185611285565b935083871015151561102257600080fd5b8460000160009054906101000a900473ffffffffffffffffffffffffffffffffffffffff16925061105288611378565b60008411156110ac5761106484611434565b915081840390508273ffffffffffffffffffffffffffffffffffffffff166108fc829081150290604051600060405180830381858888f1935050505015156110ab57600080fd5b5b7f4fcc30d90a842164dd58501ab874a101a3749c3d4747139cefe7c876f4ccebd2888533604051808481526020018381526020018273ffffffffffffffffffffffffffffffffffffffff1673ffffffffffffffffffffffffffffffffffffffff168152602001935050505060405180910390a1839550505050505092915050565b600160009054906101000a900473ffffffffffffffffffffffffffffffffffffffff1673ffffffffffffffffffffffffffffffffffffffff1663a9059cbb83836040518363ffffffff167c0100000000000000000000000000000000000000000000000000000000028152600401808373ffffffffffffffffffffffffffffffffffffffff1673ffffffffffffffffffffffffffffffffffffffff16815260200182815260200192505050600060405180830381600087803b15156111f157600080fd5b6102c65a03f1151561120257600080fd5b5050505050565b6000808260020160089054906101000a900467ffffffffffffffff1667ffffffffffffffff16119050919050565b61124082611378565b61124a818361112d565b7f2809c7e17bf978fbc7194c0a694b638c4215e9140cacc6c38ca36010b45697df826040518082815260200191505060405180910390a15050565b600080600090508260020160089054906101000a900467ffffffffffffffff1667ffffffffffffffff164211156112de578260020160089054906101000a900467ffffffffffffffff1667ffffffffffffffff16420390505b6113708360010160009054906101000a90046fffffffffffffffffffffffffffffffff166fffffffffffffffffffffffffffffffff168460010160109054906101000a90046fffffffffffffffffffffffffffffffff166fffffffffffffffffffffffffffffffff168560020160009054906101000a900467ffffffffffffffff1667ffffffffffffffff168461144f565b915050919050565b60036000828152602001908152602001600020600080820160006101000a81549073ffffffffffffffffffffffffffffffffffffffff02191690556001820160006101000a8154906fffffffffffffffffffffffffffffffff02191690556001820160106101000a8154906fffffffffffffffffffffffffffffffff02191690556002820160006101000a81549067ffffffffffffffff02191690556002820160086101000a81549067ffffffffffffffff0219169055505050565b6000612710600254830281151561144757fe5b049050919050565b600080600080858510151561146657869350611484565b87870392508585840281151561147857fe5b05915081880190508093505b505050949350505050565b60a060405190810160405280600073ffffffffffffffffffffffffffffffffffffffff16815260200160006fffffffffffffffffffffffffffffffff16815260200160006fffffffffffffffffffffffffffffffff168152602001600067ffffffffffffffff168152602001600067ffffffffffffffff16815250905600a165627a7a723058209cc7ae99d50f1e03a95cea1c94bbab45ddf0a9310d4577abd9b130924a64037a0029",
  "source": "pragma solidity ^0.4.18;\n\nimport \"./../ERC721Draft.sol\";\nimport \"./ClockAuctionBase.sol\";\nimport \"zeppelin-solidity/contracts/lifecycle/Pausable.sol\";\n\n/// @title Clock auction for non-fungible tokens.\ncontract ClockAuction is Pausable, ClockAuctionBase {\n\n    /// @dev Constructor creates a reference to the NFT ownership contract\n    ///  and verifies the owner cut is in the valid range.\n    /// @param _nftAddress - address of a deployed contract implementing\n    ///  the Nonfungible Interface.\n    /// @param _cut - percent cut the owner takes on each auction, must be\n    ///  between 0-10,000.\n    function ClockAuction(address _nftAddress, uint256 _cut) public {\n        require(_cut <= 10000);\n        ownerCut = _cut;\n        \n        ERC721 candidateContract = ERC721(_nftAddress);\n        require(candidateContract.implementsERC721());\n        nonFungibleContract = candidateContract;\n    }\n\n    /// @dev Remove all Ether from the contract, which is the owner's cuts\n    ///  as well as any Ether sent directly to the contract address.\n    ///  Always transfers to the NFT contract, but can be called either by\n    ///  the owner or the NFT contract.\n    function withdrawBalance() external {\n        address nftAddress = address(nonFungibleContract);\n\n        require(\n            msg.sender == owner ||\n            msg.sender == nftAddress\n        );\n        nftAddress.transfer(this.balance);\n    }\n\n    /// @dev Creates and begins a new auction.\n    /// @param _tokenId - ID of token to auction, sender must be owner.\n    /// @param _startingPrice - Price of item (in wei) at beginning of auction.\n    /// @param _endingPrice - Price of item (in wei) at end of auction.\n    /// @param _duration - Length of time to move between starting\n    ///  price and ending price (in seconds).\n    /// @param _seller - Seller, if not the message sender\n    function createAuction(\n        uint256 _tokenId,\n        uint256 _startingPrice,\n        uint256 _endingPrice,\n        uint256 _duration,\n        address _seller\n    )\n        public\n        whenNotPaused\n        canBeStoredWith128Bits(_startingPrice)\n        canBeStoredWith128Bits(_endingPrice)\n        canBeStoredWith64Bits(_duration)\n    {\n        require(_owns(msg.sender, _tokenId));\n        _escrow(msg.sender, _tokenId);\n        Auction memory auction = Auction(\n            _seller,\n            uint128(_startingPrice),\n            uint128(_endingPrice),\n            uint64(_duration),\n            uint64(now)\n        );\n        _addAuction(_tokenId, auction);\n    }\n\n    /// @dev Bids on an open auction, completing the auction and transferring\n    ///  ownership of the NFT if enough Ether is supplied.\n    /// @param _tokenId - ID of token to bid on.\n    function bid(uint256 _tokenId)\n        public\n        payable\n        whenNotPaused\n    {\n        // _bid will throw if the bid or funds transfer fails\n        _bid(_tokenId, msg.value);\n        _transfer(msg.sender, _tokenId);\n    }\n\n    /// @dev Cancels an auction that hasn't been won yet.\n    ///  Returns the NFT to original owner.\n    /// @notice This is a state-modifying function that can\n    ///  be called while the contract is paused.\n    /// @param _tokenId - ID of token on auction\n    function cancelAuction(uint256 _tokenId)\n        public\n    {\n        Auction storage auction = tokenIdToAuction[_tokenId];\n        require(_isOnAuction(auction));\n        address seller = auction.seller;\n        require(msg.sender == seller);\n        _cancelAuction(_tokenId, seller);\n    }\n\n    /// @dev Cancels an auction when the contract is paused.\n    ///  Only the owner may do this, and NFTs are returned to\n    ///  the seller. This should only be used in emergencies.\n    /// @param _tokenId - ID of the NFT on auction to cancel.\n    function cancelAuctionWhenPaused(uint256 _tokenId)\n        whenPaused\n        onlyOwner\n        public\n    {\n        Auction storage auction = tokenIdToAuction[_tokenId];\n        require(_isOnAuction(auction));\n        _cancelAuction(_tokenId, auction.seller);\n    }\n\n    /// @dev Returns auction info for an NFT on auction.\n    /// @param _tokenId - ID of NFT on auction.\n    function getAuction(uint256 _tokenId)\n        public\n        view\n        returns\n    (\n        address seller,\n        uint256 startingPrice,\n        uint256 endingPrice,\n        uint256 duration,\n        uint256 startedAt\n    ) {\n        Auction storage auction = tokenIdToAuction[_tokenId];\n        require(_isOnAuction(auction));\n        return (\n            auction.seller,\n            auction.startingPrice,\n            auction.endingPrice,\n            auction.duration,\n            auction.startedAt\n        );\n    }\n\n    /// @dev Returns the current price of an auction.\n    /// @param _tokenId - ID of the token price we are checking.\n    function getCurrentPrice(uint256 _tokenId)\n        public\n        view\n        returns (uint256)\n    {\n        Auction storage auction = tokenIdToAuction[_tokenId];\n        require(_isOnAuction(auction));\n        return _currentPrice(auction);\n    }\n\n}\n",
  "sourcePath": "/Users/sergiochan/Documents/百度工作文档/个人相关/crypto-ring/contracts/Auction/ClockAuction.sol",
  "compiler": {
    "name": "solc",
    "version": "0.4.18+commit.9cf6e910.Emscripten.clang"
  },
  "schemaVersion": "1.0.1",
  "updatedAt": "2018-01-28T00:29:47.843Z"
}