{
  "contractName": "Debuggable",
  "abi": [
    {
      "constant": true,
      "inputs": [],
      "name": "timeNow",
      "outputs": [
        {
          "name": "",
          "type": "uint256"
        }
      ],
      "payable": false,
      "stateMutability": "view",
      "type": "function"
    },
    {
      "anonymous": false,
      "inputs": [
        {
          "indexed": false,
          "name": "label",
          "type": "string"
        },
        {
          "indexed": false,
          "name": "value",
          "type": "uint256"
        }
      ],
      "name": "Logui",
      "type": "event"
    },
    {
      "anonymous": false,
      "inputs": [
        {
          "indexed": false,
          "name": "label",
          "type": "string"
        },
        {
          "indexed": false,
          "name": "value",
          "type": "int256"
        }
      ],
      "name": "Logi",
      "type": "event"
    }
  ],
  "bytecode": "0x60606040523415600e57600080fd5b609e8061001c6000396000f300606060405260043610603f576000357c0100000000000000000000000000000000000000000000000000000000900463ffffffff168063d95660be146044575b600080fd5b3415604e57600080fd5b6054606a565b6040518082815260200191505060405180910390f35b6000429050905600a165627a7a72305820531301fe456d463bf78a877db3abd3e59b7bc1f52ebb150fe574a6454237a3b40029",
  "source": "pragma solidity ^0.4.18;\n\n\n/// @title aid development, should not be released into final version\ncontract Debuggable {\n    event Logui(string label, uint256 value);\n    event Logi(string label, int256 value);\n\n    function logui64(string s, uint64 x) internal {\n        Logui(s, uint256(x));\n    }\n\n    function logui256(string s, uint256 x) internal {\n        Logui(s, x);\n    }\n\n    function logi256(string s, int256 x) internal {\n        Logi(s, x);\n    }\n\n    function logb(string s, bool b) internal {\n        uint256 n = 0;\n        if (b) {\n            n = 1;\n        }\n        Logui(s, n);\n    }\n\n    function timeNow() public view returns (uint256) {\n        return now;\n    }\n}\n",
  "sourcePath": "/Users/sergiochan/Documents/百度工作文档/个人相关/crypto-ring/contracts/Debuggable.sol",
  "compiler": {
    "name": "solc",
    "version": "0.4.18+commit.9cf6e910.Emscripten.clang"
  },
  "schemaVersion": "1.0.1",
  "updatedAt": "2018-01-28T00:29:55.708Z"
}