{
  "contractName": "KittyOwnership",
  "abi": [
    {
      "constant": false,
      "inputs": [
        {
          "name": "_kittyId",
          "type": "uint256"
        },
        {
          "name": "_recipient",
          "type": "address"
        }
      ],
      "name": "rescueLostKitty",
      "outputs": [],
      "payable": false,
      "stateMutability": "nonpayable",
      "type": "function"
    },
    {
      "constant": true,
      "inputs": [],
      "name": "cfoAddress",
      "outputs": [
        {
          "name": "",
          "type": "address"
        }
      ],
      "payable": false,
      "stateMutability": "view",
      "type": "function"
    },
    {
      "constant": true,
      "inputs": [],
      "name": "name",
      "outputs": [
        {
          "name": "",
          "type": "string"
        }
      ],
      "payable": false,
      "stateMutability": "view",
      "type": "function"
    },
    {
      "constant": false,
      "inputs": [
        {
          "name": "_to",
          "type": "address"
        },
        {
          "name": "_tokenId",
          "type": "uint256"
        }
      ],
      "name": "approve",
      "outputs": [],
      "payable": false,
      "stateMutability": "nonpayable",
      "type": "function"
    },
    {
      "constant": true,
      "inputs": [],
      "name": "ceoAddress",
      "outputs": [
        {
          "name": "",
          "type": "address"
        }
      ],
      "payable": false,
      "stateMutability": "view",
      "type": "function"
    },
    {
      "constant": true,
      "inputs": [],
      "name": "implementsERC721",
      "outputs": [
        {
          "name": "",
          "type": "bool"
        }
      ],
      "payable": false,
      "stateMutability": "pure",
      "type": "function"
    },
    {
      "constant": true,
      "inputs": [],
      "name": "totalSupply",
      "outputs": [
        {
          "name": "",
          "type": "uint256"
        }
      ],
      "payable": false,
      "stateMutability": "view",
      "type": "function"
    },
    {
      "constant": false,
      "inputs": [
        {
          "name": "_from",
          "type": "address"
        },
        {
          "name": "_to",
          "type": "address"
        },
        {
          "name": "_tokenId",
          "type": "uint256"
        }
      ],
      "name": "transferFrom",
      "outputs": [],
      "payable": false,
      "stateMutability": "nonpayable",
      "type": "function"
    },
    {
      "constant": false,
      "inputs": [
        {
          "name": "_newCEO",
          "type": "address"
        }
      ],
      "name": "setCEO",
      "outputs": [],
      "payable": false,
      "stateMutability": "nonpayable",
      "type": "function"
    },
    {
      "constant": false,
      "inputs": [
        {
          "name": "_newCOO",
          "type": "address"
        }
      ],
      "name": "setCOO",
      "outputs": [],
      "payable": false,
      "stateMutability": "nonpayable",
      "type": "function"
    },
    {
      "constant": false,
      "inputs": [],
      "name": "unpause",
      "outputs": [],
      "payable": false,
      "stateMutability": "nonpayable",
      "type": "function"
    },
    {
      "constant": true,
      "inputs": [
        {
          "name": "",
          "type": "uint256"
        }
      ],
      "name": "sireAllowedToAddress",
      "outputs": [
        {
          "name": "",
          "type": "address"
        }
      ],
      "payable": false,
      "stateMutability": "view",
      "type": "function"
    },
    {
      "constant": true,
      "inputs": [
        {
          "name": "_owner",
          "type": "address"
        },
        {
          "name": "_index",
          "type": "uint256"
        }
      ],
      "name": "tokensOfOwnerByIndex",
      "outputs": [
        {
          "name": "tokenId",
          "type": "uint256"
        }
      ],
      "payable": false,
      "stateMutability": "view",
      "type": "function"
    },
    {
      "constant": true,
      "inputs": [
        {
          "name": "",
          "type": "uint256"
        }
      ],
      "name": "kittyIndexToApproved",
      "outputs": [
        {
          "name": "",
          "type": "address"
        }
      ],
      "payable": false,
      "stateMutability": "view",
      "type": "function"
    },
    {
      "constant": false,
      "inputs": [
        {
          "name": "_newCFO",
          "type": "address"
        }
      ],
      "name": "setCFO",
      "outputs": [],
      "payable": false,
      "stateMutability": "nonpayable",
      "type": "function"
    },
    {
      "constant": true,
      "inputs": [],
      "name": "paused",
      "outputs": [
        {
          "name": "",
          "type": "bool"
        }
      ],
      "payable": false,
      "stateMutability": "view",
      "type": "function"
    },
    {
      "constant": false,
      "inputs": [],
      "name": "withdrawBalance",
      "outputs": [],
      "payable": false,
      "stateMutability": "nonpayable",
      "type": "function"
    },
    {
      "constant": true,
      "inputs": [
        {
          "name": "_tokenId",
          "type": "uint256"
        }
      ],
      "name": "ownerOf",
      "outputs": [
        {
          "name": "owner",
          "type": "address"
        }
      ],
      "payable": false,
      "stateMutability": "view",
      "type": "function"
    },
    {
      "constant": true,
      "inputs": [
        {
          "name": "_owner",
          "type": "address"
        }
      ],
      "name": "balanceOf",
      "outputs": [
        {
          "name": "count",
          "type": "uint256"
        }
      ],
      "payable": false,
      "stateMutability": "view",
      "type": "function"
    },
    {
      "constant": false,
      "inputs": [],
      "name": "pause",
      "outputs": [],
      "payable": false,
      "stateMutability": "nonpayable",
      "type": "function"
    },
    {
      "constant": true,
      "inputs": [],
      "name": "symbol",
      "outputs": [
        {
          "name": "",
          "type": "string"
        }
      ],
      "payable": false,
      "stateMutability": "view",
      "type": "function"
    },
    {
      "constant": true,
      "inputs": [
        {
          "name": "",
          "type": "uint256"
        }
      ],
      "name": "cooldowns",
      "outputs": [
        {
          "name": "",
          "type": "uint32"
        }
      ],
      "payable": false,
      "stateMutability": "view",
      "type": "function"
    },
    {
      "constant": true,
      "inputs": [
        {
          "name": "",
          "type": "uint256"
        }
      ],
      "name": "kittyIndexToOwner",
      "outputs": [
        {
          "name": "",
          "type": "address"
        }
      ],
      "payable": false,
      "stateMutability": "view",
      "type": "function"
    },
    {
      "constant": false,
      "inputs": [
        {
          "name": "_to",
          "type": "address"
        },
        {
          "name": "_tokenId",
          "type": "uint256"
        }
      ],
      "name": "transfer",
      "outputs": [],
      "payable": false,
      "stateMutability": "nonpayable",
      "type": "function"
    },
    {
      "constant": true,
      "inputs": [],
      "name": "cooAddress",
      "outputs": [
        {
          "name": "",
          "type": "address"
        }
      ],
      "payable": false,
      "stateMutability": "view",
      "type": "function"
    },
    {
      "anonymous": false,
      "inputs": [
        {
          "indexed": true,
          "name": "from",
          "type": "address"
        },
        {
          "indexed": true,
          "name": "to",
          "type": "address"
        },
        {
          "indexed": true,
          "name": "tokenId",
          "type": "uint256"
        }
      ],
      "name": "Transfer",
      "type": "event"
    },
    {
      "anonymous": false,
      "inputs": [
        {
          "indexed": true,
          "name": "owner",
          "type": "address"
        },
        {
          "indexed": true,
          "name": "approved",
          "type": "address"
        },
        {
          "indexed": true,
          "name": "tokenId",
          "type": "uint256"
        }
      ],
      "name": "Approval",
      "type": "event"
    },
    {
      "anonymous": false,
      "inputs": [
        {
          "indexed": true,
          "name": "owner",
          "type": "address"
        },
        {
          "indexed": false,
          "name": "kittyId",
          "type": "uint256"
        },
        {
          "indexed": false,
          "name": "matronId",
          "type": "uint256"
        },
        {
          "indexed": false,
          "name": "sireId",
          "type": "uint256"
        },
        {
          "indexed": false,
          "name": "genes",
          "type": "uint256"
        }
      ],
      "name": "Birth",
      "type": "event"
    },
    {
      "anonymous": false,
      "inputs": [
        {
          "indexed": false,
          "name": "newContract",
          "type": "address"
        }
      ],
      "name": "ContractUpgrade",
      "type": "event"
    }
  ],
  "bytecode": "0x60606040526000600260146101000a81548160ff0219169083151502179055506101c060405190810160405280603c63ffffffff1663ffffffff168152602001607863ffffffff1663ffffffff16815260200161012c63ffffffff1663ffffffff16815260200161025863ffffffff1663ffffffff16815260200161070863ffffffff1663ffffffff168152602001610e1063ffffffff1663ffffffff168152602001611c2063ffffffff1663ffffffff16815260200161384063ffffffff1663ffffffff16815260200161708063ffffffff1663ffffffff16815260200161e10063ffffffff1663ffffffff1681526020016201518063ffffffff1663ffffffff1681526020016202a30063ffffffff1663ffffffff1681526020016205460063ffffffff1663ffffffff16815260200162093a8063ffffffff1663ffffffff16815250600390600e6200015692919062000205565b506040805190810160405280600d81526020017f43727970746f4b69747469657300000000000000000000000000000000000000815250600a9080519060200190620001a4929190620002af565b506040805190810160405280600281526020017f434b000000000000000000000000000000000000000000000000000000000000815250600b9080519060200190620001f2929190620002af565b503415620001ff57600080fd5b62000394565b82600e6007016008900481019282156200029c5791602002820160005b838211156200026857835183826101000a81548163ffffffff021916908363ffffffff160217905550926020019260040160208160030104928301926001030262000222565b80156200029a5782816101000a81549063ffffffff021916905560040160208160030104928301926001030262000268565b505b509050620002ab919062000336565b5090565b828054600181600116156101000203166002900490600052602060002090601f016020900481019282601f10620002f257805160ff191683800117855562000323565b8280016001018555821562000323579182015b828111156200032257825182559160200191906001019062000305565b5b5090506200033291906200036c565b5090565b6200036991905b808211156200036557600081816101000a81549063ffffffff0219169055506001016200033d565b5090565b90565b6200039191905b808211156200038d57600081600090555060010162000373565b5090565b90565b61171d80620003a46000396000f300606060405260043610610149576000357c0100000000000000000000000000000000000000000000000000000000900463ffffffff168063030c47411461014e5780630519ce791461019057806306fdde03146101e5578063095ea7b3146102735780630a0f8168146102b55780631051db341461030a57806318160ddd1461033757806323b872dd1461036057806327d7874c146103c15780632ba73c15146103fa5780633f4ba83a1461043357806346116e6f146104485780634707f44f146104ab578063481af3d3146105015780634e0a3379146105645780635c975abb1461059d5780635fd8c710146105ca5780636352211e146105df57806370a08231146106425780638456cb591461068f57806395d89b41146106a45780639d6fac6f14610732578063a45f4bfc14610775578063a9059cbb146107d8578063b047fb501461081a575b600080fd5b341561015957600080fd5b61018e600480803590602001909190803573ffffffffffffffffffffffffffffffffffffffff1690602001909190505061086f565b005b341561019b57600080fd5b6101a361090b565b604051808273ffffffffffffffffffffffffffffffffffffffff1673ffffffffffffffffffffffffffffffffffffffff16815260200191505060405180910390f35b34156101f057600080fd5b6101f8610931565b6040518080602001828103825283818151815260200191508051906020019080838360005b8381101561023857808201518184015260208101905061021d565b50505050905090810190601f1680156102655780820380516001836020036101000a031916815260200191505b509250505060405180910390f35b341561027e57600080fd5b6102b3600480803573ffffffffffffffffffffffffffffffffffffffff169060200190919080359060200190919050506109cf565b005b34156102c057600080fd5b6102c8610a69565b604051808273ffffffffffffffffffffffffffffffffffffffff1673ffffffffffffffffffffffffffffffffffffffff16815260200191505060405180910390f35b341561031557600080fd5b61031d610a8e565b604051808215151515815260200191505060405180910390f35b341561034257600080fd5b61034a610a97565b6040518082815260200191505060405180910390f35b341561036b57600080fd5b6103bf600480803573ffffffffffffffffffffffffffffffffffffffff1690602001909190803573ffffffffffffffffffffffffffffffffffffffff16906020019091908035906020019091905050610aa7565b005b34156103cc57600080fd5b6103f8600480803573ffffffffffffffffffffffffffffffffffffffff16906020019091905050610afd565b005b341561040557600080fd5b610431600480803573ffffffffffffffffffffffffffffffffffffffff16906020019091905050610bd7565b005b341561043e57600080fd5b610446610cb2565b005b341561045357600080fd5b6104696004808035906020019091905050610d45565b604051808273ffffffffffffffffffffffffffffffffffffffff1673ffffffffffffffffffffffffffffffffffffffff16815260200191505060405180910390f35b34156104b657600080fd5b6104eb600480803573ffffffffffffffffffffffffffffffffffffffff16906020019091908035906020019091905050610d78565b6040518082815260200191505060405180910390f35b341561050c57600080fd5b6105226004808035906020019091905050610e2f565b604051808273ffffffffffffffffffffffffffffffffffffffff1673ffffffffffffffffffffffffffffffffffffffff16815260200191505060405180910390f35b341561056f57600080fd5b61059b600480803573ffffffffffffffffffffffffffffffffffffffff16906020019091905050610e62565b005b34156105a857600080fd5b6105b0610f3d565b604051808215151515815260200191505060405180910390f35b34156105d557600080fd5b6105dd610f50565b005b34156105ea57600080fd5b6106006004808035906020019091905050611027565b604051808273ffffffffffffffffffffffffffffffffffffffff1673ffffffffffffffffffffffffffffffffffffffff16815260200191505060405180910390f35b341561064d57600080fd5b610679600480803573ffffffffffffffffffffffffffffffffffffffff169060200190919050506110a0565b6040518082815260200191505060405180910390f35b341561069a57600080fd5b6106a26110e9565b005b34156106af57600080fd5b6106b761122d565b6040518080602001828103825283818151815260200191508051906020019080838360005b838110156106f75780820151818401526020810190506106dc565b50505050905090810190601f1680156107245780820380516001836020036101000a031916815260200191505b509250505060405180910390f35b341561073d57600080fd5b61075360048080359060200190919050506112cb565b604051808263ffffffff1663ffffffff16815260200191505060405180910390f35b341561078057600080fd5b61079660048080359060200190919050506112fa565b604051808273ffffffffffffffffffffffffffffffffffffffff1673ffffffffffffffffffffffffffffffffffffffff16815260200191505060405180910390f35b34156107e357600080fd5b610818600480803573ffffffffffffffffffffffffffffffffffffffff1690602001909190803590602001909190505061132d565b005b341561082557600080fd5b61082d6113a9565b604051808273ffffffffffffffffffffffffffffffffffffffff1673ffffffffffffffffffffffffffffffffffffffff16815260200191505060405180910390f35b600260009054906101000a900473ffffffffffffffffffffffffffffffffffffffff1673ffffffffffffffffffffffffffffffffffffffff163373ffffffffffffffffffffffffffffffffffffffff161415156108cb57600080fd5b600260149054906101000a900460ff161515156108e757600080fd5b6108f130836113cf565b15156108fc57600080fd5b61090730828461143b565b5050565b600160009054906101000a900473ffffffffffffffffffffffffffffffffffffffff1681565b600a8054600181600116156101000203166002900480601f0160208091040260200160405190810160405280929190818152602001828054600181600116156101000203166002900480156109c75780601f1061099c576101008083540402835291602001916109c7565b820191906000526020600020905b8154815290600101906020018083116109aa57829003601f168201915b505050505081565b600260149054906101000a900460ff161515156109eb57600080fd5b6109f533826113cf565b1515610a0057600080fd5b610a0a818361162f565b808273ffffffffffffffffffffffffffffffffffffffff163373ffffffffffffffffffffffffffffffffffffffff167f8c5be1e5ebec7d5bd14f71427d1e84f3dd0314c0f7b2291e5b200ac8c7c3b92560405160405180910390a45050565b6000809054906101000a900473ffffffffffffffffffffffffffffffffffffffff1681565b60006001905090565b6000600160058054905003905090565b600260149054906101000a900460ff16151515610ac357600080fd5b610acd3382611685565b1515610ad857600080fd5b610ae283826113cf565b1515610aed57600080fd5b610af883838361143b565b505050565b6000809054906101000a900473ffffffffffffffffffffffffffffffffffffffff1673ffffffffffffffffffffffffffffffffffffffff163373ffffffffffffffffffffffffffffffffffffffff16141515610b5857600080fd5b600073ffffffffffffffffffffffffffffffffffffffff168173ffffffffffffffffffffffffffffffffffffffff1614151515610b9457600080fd5b806000806101000a81548173ffffffffffffffffffffffffffffffffffffffff021916908373ffffffffffffffffffffffffffffffffffffffff16021790555050565b6000809054906101000a900473ffffffffffffffffffffffffffffffffffffffff1673ffffffffffffffffffffffffffffffffffffffff163373ffffffffffffffffffffffffffffffffffffffff16141515610c3257600080fd5b600073ffffffffffffffffffffffffffffffffffffffff168173ffffffffffffffffffffffffffffffffffffffff1614151515610c6e57600080fd5b80600260006101000a81548173ffffffffffffffffffffffffffffffffffffffff021916908373ffffffffffffffffffffffffffffffffffffffff16021790555050565b6000809054906101000a900473ffffffffffffffffffffffffffffffffffffffff1673ffffffffffffffffffffffffffffffffffffffff163373ffffffffffffffffffffffffffffffffffffffff16141515610d0d57600080fd5b600260149054906101000a900460ff161515610d2857600080fd5b6000600260146101000a81548160ff021916908315150217905550565b60096020528060005260406000206000915054906101000a900473ffffffffffffffffffffffffffffffffffffffff1681565b6000806000809150600190505b610d8d610a97565b81111515610e22578473ffffffffffffffffffffffffffffffffffffffff166006600083815260200190815260200160002060009054906101000a900473ffffffffffffffffffffffffffffffffffffffff1673ffffffffffffffffffffffffffffffffffffffff161415610e155783821415610e0c57809250610e27565b81806001019250505b8080600101915050610d85565b600080fd5b505092915050565b60086020528060005260406000206000915054906101000a900473ffffffffffffffffffffffffffffffffffffffff1681565b6000809054906101000a900473ffffffffffffffffffffffffffffffffffffffff1673ffffffffffffffffffffffffffffffffffffffff163373ffffffffffffffffffffffffffffffffffffffff16141515610ebd57600080fd5b600073ffffffffffffffffffffffffffffffffffffffff168173ffffffffffffffffffffffffffffffffffffffff1614151515610ef957600080fd5b80600160006101000a81548173ffffffffffffffffffffffffffffffffffffffff021916908373ffffffffffffffffffffffffffffffffffffffff16021790555050565b600260149054906101000a900460ff1681565b600160009054906101000a900473ffffffffffffffffffffffffffffffffffffffff1673ffffffffffffffffffffffffffffffffffffffff163373ffffffffffffffffffffffffffffffffffffffff16141515610fac57600080fd5b600160009054906101000a900473ffffffffffffffffffffffffffffffffffffffff1673ffffffffffffffffffffffffffffffffffffffff166108fc3073ffffffffffffffffffffffffffffffffffffffff16319081150290604051600060405180830381858888f19350505050151561102557600080fd5b565b60006006600083815260200190815260200160002060009054906101000a900473ffffffffffffffffffffffffffffffffffffffff169050600073ffffffffffffffffffffffffffffffffffffffff168173ffffffffffffffffffffffffffffffffffffffff161415151561109b57600080fd5b919050565b6000600760008373ffffffffffffffffffffffffffffffffffffffff1673ffffffffffffffffffffffffffffffffffffffff168152602001908152602001600020549050919050565b600260009054906101000a900473ffffffffffffffffffffffffffffffffffffffff1673ffffffffffffffffffffffffffffffffffffffff163373ffffffffffffffffffffffffffffffffffffffff16148061119157506000809054906101000a900473ffffffffffffffffffffffffffffffffffffffff1673ffffffffffffffffffffffffffffffffffffffff163373ffffffffffffffffffffffffffffffffffffffff16145b806111e95750600160009054906101000a900473ffffffffffffffffffffffffffffffffffffffff1673ffffffffffffffffffffffffffffffffffffffff163373ffffffffffffffffffffffffffffffffffffffff16145b15156111f457600080fd5b600260149054906101000a900460ff1615151561121057600080fd5b6001600260146101000a81548160ff021916908315150217905550565b600b8054600181600116156101000203166002900480601f0160208091040260200160405190810160405280929190818152602001828054600181600116156101000203166002900480156112c35780601f10611298576101008083540402835291602001916112c3565b820191906000526020600020905b8154815290600101906020018083116112a657829003601f168201915b505050505081565b600381600e811015156112da57fe5b60089182820401919006600402915054906101000a900463ffffffff1681565b60066020528060005260406000206000915054906101000a900473ffffffffffffffffffffffffffffffffffffffff1681565b600260149054906101000a900460ff1615151561134957600080fd5b600073ffffffffffffffffffffffffffffffffffffffff168273ffffffffffffffffffffffffffffffffffffffff161415151561138557600080fd5b61138f33826113cf565b151561139a57600080fd5b6113a533838361143b565b5050565b600260009054906101000a900473ffffffffffffffffffffffffffffffffffffffff1681565b60008273ffffffffffffffffffffffffffffffffffffffff166006600084815260200190815260200160002060009054906101000a900473ffffffffffffffffffffffffffffffffffffffff1673ffffffffffffffffffffffffffffffffffffffff1614905092915050565b600760008373ffffffffffffffffffffffffffffffffffffffff1673ffffffffffffffffffffffffffffffffffffffff16815260200190815260200160002060008154809291906001019190505550816006600083815260200190815260200160002060006101000a81548173ffffffffffffffffffffffffffffffffffffffff021916908373ffffffffffffffffffffffffffffffffffffffff160217905550600073ffffffffffffffffffffffffffffffffffffffff168373ffffffffffffffffffffffffffffffffffffffff161415156115cf57600760008473ffffffffffffffffffffffffffffffffffffffff1673ffffffffffffffffffffffffffffffffffffffff16815260200190815260200160002060008154809291906001900391905055506009600082815260200190815260200160002060006101000a81549073ffffffffffffffffffffffffffffffffffffffff02191690556008600082815260200190815260200160002060006101000a81549073ffffffffffffffffffffffffffffffffffffffff02191690555b808273ffffffffffffffffffffffffffffffffffffffff168473ffffffffffffffffffffffffffffffffffffffff167fddf252ad1be2c89b69c2b068fc378daa952ba7f163c4a11628f55a4df523b3ef60405160405180910390a4505050565b806008600084815260200190815260200160002060006101000a81548173ffffffffffffffffffffffffffffffffffffffff021916908373ffffffffffffffffffffffffffffffffffffffff1602179055505050565b60008273ffffffffffffffffffffffffffffffffffffffff166008600084815260200190815260200160002060009054906101000a900473ffffffffffffffffffffffffffffffffffffffff1673ffffffffffffffffffffffffffffffffffffffff16149050929150505600a165627a7a72305820ba74a81b5bab40d9008a1b20ee434403c37b3755494bd48dcebf6351e6b92ab30029",
  "source": "pragma solidity ^0.4.18;\n\nimport \"./KittyBase.sol\";\nimport \"./ERC721Draft.sol\";\n\n/// @title The facet of the CryptoKitties core contract that manages ownership, ERC-721 (draft) compliant.\n/// @author Axiom Zen (https://www.axiomzen.co)\n/// @dev Ref: https://github.com/ethereum/EIPs/issues/721\n///  See the KittyCore contract documentation to understand how the various contract facets are arranged.\ncontract KittyOwnership is KittyBase, ERC721 {\n\n    /// @notice Name and symbol of the non fungible token, as defined in ERC721.\n    string public name = \"CryptoKitties\";\n    string public symbol = \"CK\";\n\n    // bool public implementsERC721 = true;\n    //\n    function implementsERC721() public pure returns (bool)\n    {\n        return true;\n    }\n    \n    // Internal utility functions: These functions all assume that their input arguments\n    // are valid. We leave it to public methods to sanitize their inputs and follow\n    // the required logic.\n\n    /// @dev Checks if a given address is the current owner of a particular Kitty.\n    /// @param _claimant the address we are validating against.\n    /// @param _tokenId kitten id, only valid when > 0\n    function _owns(address _claimant, uint256 _tokenId) internal view returns (bool) {\n        return kittyIndexToOwner[_tokenId] == _claimant;\n    }\n\n    /// @dev Checks if a given address currently has transferApproval for a particular Kitty.\n    /// @param _claimant the address we are confirming kitten is approved for.\n    /// @param _tokenId kitten id, only valid when > 0\n    function _approvedFor(address _claimant, uint256 _tokenId) internal view returns (bool) {\n        return kittyIndexToApproved[_tokenId] == _claimant;\n    }\n\n    /// @dev Marks an address as being approved for transferFrom(), overwriting any previous\n    ///  approval. Setting _approved to address(0) clears all transfer approval.\n    ///  NOTE: _approve() does NOT send the Approval event. This is intentional because\n    ///  _approve() and transferFrom() are used together for putting Kitties on auction, and\n    ///  there is no value in spamming the log with Approval events in that case.\n    function _approve(uint256 _tokenId, address _approved) internal {\n        kittyIndexToApproved[_tokenId] = _approved;\n    }\n\n    /// @dev Transfers a kitty owned by this contract to the specified address.\n    ///  Used to rescue lost kitties. (There is no \"proper\" flow where this contract\n    ///  should be the owner of any Kitty. This function exists for us to reassign\n    ///  the ownership of Kitties that users may have accidentally sent to our address.)\n    /// @param _kittyId - ID of kitty\n    /// @param _recipient - Address to send the cat to\n    function rescueLostKitty(uint256 _kittyId, address _recipient) public onlyCOO whenNotPaused {\n        require(_owns(this, _kittyId));\n        _transfer(this, _recipient, _kittyId);\n    }\n\n    /// @notice Returns the number of Kitties owned by a specific address.\n    /// @param _owner The owner address to check.\n    /// @dev Required for ERC-721 compliance\n    function balanceOf(address _owner) public view returns (uint256 count) {\n        return ownershipTokenCount[_owner];\n    }\n\n    /// @notice Transfers a Kitty to another address. If transferring to a smart\n    ///  contract be VERY CAREFUL to ensure that it is aware of ERC-721 (or\n    ///  CryptoKitties specifically) or your Kitty may be lost forever. Seriously.\n    /// @param _to The address of the recipient, can be a user or contract.\n    /// @param _tokenId The ID of the Kitty to transfer.\n    /// @dev Required for ERC-721 compliance.\n    function transfer(\n        address _to,\n        uint256 _tokenId\n    )\n        public\n        whenNotPaused\n    {\n        // Safety check to prevent against an unexpected 0x0 default.\n        require(_to != address(0));\n        // You can only send your own cat.\n        require(_owns(msg.sender, _tokenId));\n\n        // Reassign ownership, clear pending approvals, emit Transfer event.\n        _transfer(msg.sender, _to, _tokenId);\n    }\n\n    /// @notice Grant another address the right to transfer a specific Kitty via\n    ///  transferFrom(). This is the preferred flow for transfering NFTs to contracts.\n    /// @param _to The address to be granted transfer approval. Pass address(0) to\n    ///  clear all approvals.\n    /// @param _tokenId The ID of the Kitty that can be transferred if this call succeeds.\n    /// @dev Required for ERC-721 compliance.\n    function approve(\n        address _to,\n        uint256 _tokenId\n    )\n        public\n        whenNotPaused\n    {\n        // Only an owner can grant transfer approval.\n        require(_owns(msg.sender, _tokenId));\n\n        // Register the approval (replacing any previous approval).\n        _approve(_tokenId, _to);\n\n        // Emit approval event.\n        Approval(msg.sender, _to, _tokenId);\n    }\n\n    /// @notice Transfer a Kitty owned by another address, for which the calling address\n    ///  has previously been granted transfer approval by the owner.\n    /// @param _from The address that owns the Kitty to be transfered.\n    /// @param _to The address that should take ownership of the Kitty. Can be any address,\n    ///  including the caller.\n    /// @param _tokenId The ID of the Kitty to be transferred.\n    /// @dev Required for ERC-721 compliance.\n    function transferFrom(\n        address _from,\n        address _to,\n        uint256 _tokenId\n    )\n        public\n        whenNotPaused\n    {\n        // Check for approval and valid ownership\n        require(_approvedFor(msg.sender, _tokenId));\n        require(_owns(_from, _tokenId));\n\n        // Reassign ownership (also clears pending approvals and emits Transfer event).\n        _transfer(_from, _to, _tokenId);\n    }\n\n    /// @notice Returns the total number of Kitties currently in existence.\n    /// @dev Required for ERC-721 compliance.\n    function totalSupply() public view returns (uint) {\n        return kitties.length - 1;\n    }\n\n    /// @notice Returns the address currently assigned ownership of a given Kitty.\n    /// @dev Required for ERC-721 compliance.\n    function ownerOf(uint256 _tokenId)\n        public\n        view\n        returns (address owner)\n    {\n        owner = kittyIndexToOwner[_tokenId];\n\n        require(owner != address(0));\n    }\n\n    /// @notice Returns the nth Kitty assigned to an address, with n specified by the\n    ///  _index argument.\n    /// @param _owner The owner whose Kitties we are interested in.\n    /// @param _index The zero-based index of the cat within the owner's list of cats.\n    ///  Must be less than balanceOf(_owner).\n    /// @dev This method MUST NEVER be called by smart contract code. It will almost\n    ///  certainly blow past the block gas limit once there are a large number of\n    ///  Kitties in existence. Exists only to allow off-chain queries of ownership.\n    ///  Optional method for ERC-721.\n    function tokensOfOwnerByIndex(address _owner, uint256 _index)\n        external\n        view\n        returns (uint256 tokenId)\n    {\n        uint256 count = 0;\n        for (uint256 i = 1; i <= totalSupply(); i++) {\n            if (kittyIndexToOwner[i] == _owner) {\n                if (count == _index) {\n                    return i;\n                } else {\n                    count++;\n                }\n            }\n        }\n        revert();\n    }\n}\n",
  "sourcePath": "/Users/sergiochan/Documents/百度工作文档/个人相关/crypto-ring/contracts/KittyOwnership.sol",
  "compiler": {
    "name": "solc",
    "version": "0.4.18+commit.9cf6e910.Emscripten.clang"
  },
  "schemaVersion": "1.0.1",
  "updatedAt": "2018-01-28T00:29:55.743Z"
}