{
  "contractName": "KittyAccessControl",
  "abi": [
    {
      "constant": true,
      "inputs": [],
      "name": "cfoAddress",
      "outputs": [
        {
          "name": "",
          "type": "address"
        }
      ],
      "payable": false,
      "stateMutability": "view",
      "type": "function"
    },
    {
      "constant": true,
      "inputs": [],
      "name": "ceoAddress",
      "outputs": [
        {
          "name": "",
          "type": "address"
        }
      ],
      "payable": false,
      "stateMutability": "view",
      "type": "function"
    },
    {
      "constant": false,
      "inputs": [
        {
          "name": "_newCEO",
          "type": "address"
        }
      ],
      "name": "setCEO",
      "outputs": [],
      "payable": false,
      "stateMutability": "nonpayable",
      "type": "function"
    },
    {
      "constant": false,
      "inputs": [
        {
          "name": "_newCOO",
          "type": "address"
        }
      ],
      "name": "setCOO",
      "outputs": [],
      "payable": false,
      "stateMutability": "nonpayable",
      "type": "function"
    },
    {
      "constant": false,
      "inputs": [],
      "name": "unpause",
      "outputs": [],
      "payable": false,
      "stateMutability": "nonpayable",
      "type": "function"
    },
    {
      "constant": false,
      "inputs": [
        {
          "name": "_newCFO",
          "type": "address"
        }
      ],
      "name": "setCFO",
      "outputs": [],
      "payable": false,
      "stateMutability": "nonpayable",
      "type": "function"
    },
    {
      "constant": true,
      "inputs": [],
      "name": "paused",
      "outputs": [
        {
          "name": "",
          "type": "bool"
        }
      ],
      "payable": false,
      "stateMutability": "view",
      "type": "function"
    },
    {
      "constant": false,
      "inputs": [],
      "name": "withdrawBalance",
      "outputs": [],
      "payable": false,
      "stateMutability": "nonpayable",
      "type": "function"
    },
    {
      "constant": false,
      "inputs": [],
      "name": "pause",
      "outputs": [],
      "payable": false,
      "stateMutability": "nonpayable",
      "type": "function"
    },
    {
      "constant": true,
      "inputs": [],
      "name": "cooAddress",
      "outputs": [
        {
          "name": "",
          "type": "address"
        }
      ],
      "payable": false,
      "stateMutability": "view",
      "type": "function"
    },
    {
      "anonymous": false,
      "inputs": [
        {
          "indexed": false,
          "name": "newContract",
          "type": "address"
        }
      ],
      "name": "ContractUpgrade",
      "type": "event"
    }
  ],
  "bytecode": "0x60606040526000600260146101000a81548160ff021916908315150217905550341561002a57600080fd5b6108ad806100396000396000f3006060604052600436106100a4576000357c0100000000000000000000000000000000000000000000000000000000900463ffffffff1680630519ce79146100a95780630a0f8168146100fe57806327d7874c146101535780632ba73c151461018c5780633f4ba83a146101c55780634e0a3379146101da5780635c975abb146102135780635fd8c710146102405780638456cb5914610255578063b047fb501461026a575b600080fd5b34156100b457600080fd5b6100bc6102bf565b604051808273ffffffffffffffffffffffffffffffffffffffff1673ffffffffffffffffffffffffffffffffffffffff16815260200191505060405180910390f35b341561010957600080fd5b6101116102e5565b604051808273ffffffffffffffffffffffffffffffffffffffff1673ffffffffffffffffffffffffffffffffffffffff16815260200191505060405180910390f35b341561015e57600080fd5b61018a600480803573ffffffffffffffffffffffffffffffffffffffff1690602001909190505061030a565b005b341561019757600080fd5b6101c3600480803573ffffffffffffffffffffffffffffffffffffffff169060200190919050506103e4565b005b34156101d057600080fd5b6101d86104bf565b005b34156101e557600080fd5b610211600480803573ffffffffffffffffffffffffffffffffffffffff16906020019091905050610552565b005b341561021e57600080fd5b61022661062d565b604051808215151515815260200191505060405180910390f35b341561024b57600080fd5b610253610640565b005b341561026057600080fd5b610268610717565b005b341561027557600080fd5b61027d61085b565b604051808273ffffffffffffffffffffffffffffffffffffffff1673ffffffffffffffffffffffffffffffffffffffff16815260200191505060405180910390f35b600160009054906101000a900473ffffffffffffffffffffffffffffffffffffffff1681565b6000809054906101000a900473ffffffffffffffffffffffffffffffffffffffff1681565b6000809054906101000a900473ffffffffffffffffffffffffffffffffffffffff1673ffffffffffffffffffffffffffffffffffffffff163373ffffffffffffffffffffffffffffffffffffffff1614151561036557600080fd5b600073ffffffffffffffffffffffffffffffffffffffff168173ffffffffffffffffffffffffffffffffffffffff16141515156103a157600080fd5b806000806101000a81548173ffffffffffffffffffffffffffffffffffffffff021916908373ffffffffffffffffffffffffffffffffffffffff16021790555050565b6000809054906101000a900473ffffffffffffffffffffffffffffffffffffffff1673ffffffffffffffffffffffffffffffffffffffff163373ffffffffffffffffffffffffffffffffffffffff1614151561043f57600080fd5b600073ffffffffffffffffffffffffffffffffffffffff168173ffffffffffffffffffffffffffffffffffffffff161415151561047b57600080fd5b80600260006101000a81548173ffffffffffffffffffffffffffffffffffffffff021916908373ffffffffffffffffffffffffffffffffffffffff16021790555050565b6000809054906101000a900473ffffffffffffffffffffffffffffffffffffffff1673ffffffffffffffffffffffffffffffffffffffff163373ffffffffffffffffffffffffffffffffffffffff1614151561051a57600080fd5b600260149054906101000a900460ff16151561053557600080fd5b6000600260146101000a81548160ff021916908315150217905550565b6000809054906101000a900473ffffffffffffffffffffffffffffffffffffffff1673ffffffffffffffffffffffffffffffffffffffff163373ffffffffffffffffffffffffffffffffffffffff161415156105ad57600080fd5b600073ffffffffffffffffffffffffffffffffffffffff168173ffffffffffffffffffffffffffffffffffffffff16141515156105e957600080fd5b80600160006101000a81548173ffffffffffffffffffffffffffffffffffffffff021916908373ffffffffffffffffffffffffffffffffffffffff16021790555050565b600260149054906101000a900460ff1681565b600160009054906101000a900473ffffffffffffffffffffffffffffffffffffffff1673ffffffffffffffffffffffffffffffffffffffff163373ffffffffffffffffffffffffffffffffffffffff1614151561069c57600080fd5b600160009054906101000a900473ffffffffffffffffffffffffffffffffffffffff1673ffffffffffffffffffffffffffffffffffffffff166108fc3073ffffffffffffffffffffffffffffffffffffffff16319081150290604051600060405180830381858888f19350505050151561071557600080fd5b565b600260009054906101000a900473ffffffffffffffffffffffffffffffffffffffff1673ffffffffffffffffffffffffffffffffffffffff163373ffffffffffffffffffffffffffffffffffffffff1614806107bf57506000809054906101000a900473ffffffffffffffffffffffffffffffffffffffff1673ffffffffffffffffffffffffffffffffffffffff163373ffffffffffffffffffffffffffffffffffffffff16145b806108175750600160009054906101000a900473ffffffffffffffffffffffffffffffffffffffff1673ffffffffffffffffffffffffffffffffffffffff163373ffffffffffffffffffffffffffffffffffffffff16145b151561082257600080fd5b600260149054906101000a900460ff1615151561083e57600080fd5b6001600260146101000a81548160ff021916908315150217905550565b600260009054906101000a900473ffffffffffffffffffffffffffffffffffffffff16815600a165627a7a72305820c79594c18330bc319a88d10d429f7acf046fef5d7e5ed4366bf4e10c632718260029",
  "source": "pragma solidity ^0.4.18;\n\n/// @title A facet of KittyCore that manages special access privileges.\n/// @author Axiom Zen (https://www.axiomzen.co)\n/// @dev See the KittyCore contract documentation to understand how the various contract facets are arranged.\ncontract KittyAccessControl {\n    // This facet controls access control for CryptoKitties. There are four roles managed here:\n    //\n    //     - The CEO: The CEO can reassign other roles and change the addresses of our dependent smart\n    //         contracts. It is also the only role that can unpause the smart contract. It is initially\n    //         set to the address that created the smart contract in the KittyCore constructor.\n    //\n    //     - The CFO: The CFO can withdraw funds from KittyCore and its auction contracts.\n    //\n    //     - The COO: The COO can release gen0 kitties to auction, and mint promo cats.\n    //\n    // It should be noted that these roles are distinct without overlap in their access abilities, the\n    // abilities listed for each role above are exhaustive. In particular, while the CEO can assign any\n    // address to any role, the CEO address itself doesn't have the ability to act in those roles. This\n    // restriction is intentional so that we aren't tempted to use the CEO address frequently out of\n    // convenience. The less we use an address, the less likely it is that we somehow compromise the\n    // account.\n\n    /// @dev Emited when contract is upgraded - See README.md for updgrade plan\n    event ContractUpgrade(address newContract);\n\n    // The addresses of the accounts (or contracts) that can execute actions within each roles.\n    address public ceoAddress;\n    address public cfoAddress;\n    address public cooAddress;\n\n    // @dev Keeps track whether the contract is paused. When that is true, most actions are blocked\n    bool public paused = false;\n\n    /// @dev Access modifier for CEO-only functionality\n    modifier onlyCEO() {\n        require(msg.sender == ceoAddress);\n        _;\n    }\n\n    /// @dev Access modifier for CFO-only functionality\n    modifier onlyCFO() {\n        require(msg.sender == cfoAddress);\n        _;\n    }\n\n    /// @dev Access modifier for COO-only functionality\n    modifier onlyCOO() {\n        require(msg.sender == cooAddress);\n        _;\n    }\n\n    modifier onlyCLevel() {\n        require(\n            msg.sender == cooAddress ||\n            msg.sender == ceoAddress ||\n            msg.sender == cfoAddress\n        );\n        _;\n    }\n\n    /// @dev Assigns a new address to act as the CEO. Only available to the current CEO.\n    /// @param _newCEO The address of the new CEO\n    function setCEO(address _newCEO) public onlyCEO {\n        require(_newCEO != address(0));\n\n        ceoAddress = _newCEO;\n    }\n\n    /// @dev Assigns a new address to act as the CFO. Only available to the current CEO.\n    /// @param _newCFO The address of the new CFO\n    function setCFO(address _newCFO) public onlyCEO {\n        require(_newCFO != address(0));\n\n        cfoAddress = _newCFO;\n    }\n\n    /// @dev Assigns a new address to act as the COO. Only available to the current CEO.\n    /// @param _newCOO The address of the new COO\n    function setCOO(address _newCOO) public onlyCEO {\n        require(_newCOO != address(0));\n\n        cooAddress = _newCOO;\n    }\n\n    function withdrawBalance() external onlyCFO {\n        cfoAddress.transfer(this.balance);\n    }\n\n\n    /*** Pausable functionality adapted from OpenZeppelin ***/\n\n    /// @dev Modifier to allow actions only when the contract IS NOT paused\n    modifier whenNotPaused() {\n        require(!paused);\n        _;\n    }\n\n    /// @dev Modifier to allow actions only when the contract IS paused\n    modifier whenPaused {\n        require(paused);\n        _;\n    }\n\n    /// @dev Called by any \"C-level\" role to pause the contract. Used only when\n    ///  a bug or exploit is detected and we need to limit damage.\n    function pause() public onlyCLevel whenNotPaused {\n        paused = true;\n    }\n\n    /// @dev Unpauses the smart contract. Can only be called by the CEO, since\n    ///  one reason we may pause the contract is when CFO or COO accounts are\n    ///  compromised.\n    function unpause() public onlyCEO whenPaused {\n        // can't unpause if contract was upgraded\n        paused = false;\n    }\n}\n",
  "sourcePath": "/Users/sergiochan/Documents/百度工作文档/个人相关/crypto-ring/contracts/KittyAccessControl.sol",
  "compiler": {
    "name": "solc",
    "version": "0.4.18+commit.9cf6e910.Emscripten.clang"
  },
  "schemaVersion": "1.0.1",
  "updatedAt": "2018-01-28T00:29:55.713Z"
}